{
  "contractName": "Simplebank",
  "abi": [
    {
      "inputs": [],
      "stateMutability": "nonpayable",
      "type": "constructor"
    },
    {
      "inputs": [],
      "name": "numberOfFunders",
      "outputs": [
        {
          "internalType": "uint256",
          "name": "",
          "type": "uint256"
        }
      ],
      "stateMutability": "view",
      "type": "function",
      "constant": true
    },
    {
      "inputs": [],
      "name": "owner",
      "outputs": [
        {
          "internalType": "address",
          "name": "",
          "type": "address"
        }
      ],
      "stateMutability": "view",
      "type": "function",
      "constant": true
    },
    {
      "inputs": [
        {
          "internalType": "address",
          "name": "newOwner",
          "type": "address"
        }
      ],
      "name": "transferOwnership",
      "outputs": [],
      "stateMutability": "nonpayable",
      "type": "function"
    },
    {
      "inputs": [],
      "name": "addFunds",
      "outputs": [],
      "stateMutability": "payable",
      "type": "function",
      "payable": true
    },
    {
      "inputs": [],
      "name": "getAllFunders",
      "outputs": [
        {
          "internalType": "address[]",
          "name": "",
          "type": "address[]"
        }
      ],
      "stateMutability": "view",
      "type": "function",
      "constant": true
    },
    {
      "inputs": [
        {
          "internalType": "uint256",
          "name": "withdrawAmount",
          "type": "uint256"
        }
      ],
      "name": "withdraw",
      "outputs": [],
      "stateMutability": "nonpayable",
      "type": "function"
    }
  ],
  "bytecode": "0x608060405234801561001057600080fd5b5033600360006101000a81548173ffffffffffffffffffffffffffffffffffffffff021916908373ffffffffffffffffffffffffffffffffffffffff160217905550610847806100616000396000f3fe6080604052600436106100555760003560e01c80632e1a7d4d1461005a5780636fbbb55d146100835780638da5cb5b146100ae578063a26759cb146100d9578063dc79a7fc146100e3578063f2fde38b1461010e575b600080fd5b34801561006657600080fd5b50610081600480360381019061007c91906104d3565b610137565b005b34801561008f57600080fd5b50610098610181565b6040516100a591906105f0565b60405180910390f35b3480156100ba57600080fd5b506100c361027a565b6040516100d09190610621565b60405180910390f35b6100e16102a0565b005b3480156100ef57600080fd5b506100f86103be565b604051610105919061064b565b60405180910390f35b34801561011a57600080fd5b5061013560048036038101906101309190610692565b6103c4565b005b3373ffffffffffffffffffffffffffffffffffffffff166108fc829081150290604051600060405180830381858888f1935050505015801561017d573d6000803e3d6000fd5b5050565b60606000805467ffffffffffffffff8111156101a05761019f6106bf565b5b6040519080825280602002602001820160405280156101ce5781602001602082028036833780820191505090505b50905060005b600054811015610272576002600082815260200190815260200160002060009054906101000a900473ffffffffffffffffffffffffffffffffffffffff16828281518110610225576102246106ee565b5b602002602001019073ffffffffffffffffffffffffffffffffffffffff16908173ffffffffffffffffffffffffffffffffffffffff1681525050808061026a9061074c565b9150506101d4565b508091505090565b600360009054906101000a900473ffffffffffffffffffffffffffffffffffffffff1681565b6000339050600160008273ffffffffffffffffffffffffffffffffffffffff1673ffffffffffffffffffffffffffffffffffffffff16815260200190815260200160002060009054906101000a900460ff166103bb57600080600081548092919061030a9061074c565b91905055905060018060008473ffffffffffffffffffffffffffffffffffffffff1673ffffffffffffffffffffffffffffffffffffffff16815260200190815260200160002060006101000a81548160ff021916908315150217905550816002600083815260200190815260200160002060006101000a81548173ffffffffffffffffffffffffffffffffffffffff021916908373ffffffffffffffffffffffffffffffffffffffff160217905550505b50565b60005481565b600360009054906101000a900473ffffffffffffffffffffffffffffffffffffffff1673ffffffffffffffffffffffffffffffffffffffff163373ffffffffffffffffffffffffffffffffffffffff1614610454576040517f08c379a000000000000000000000000000000000000000000000000000000000815260040161044b906107f1565b60405180910390fd5b80600360006101000a81548173ffffffffffffffffffffffffffffffffffffffff021916908373ffffffffffffffffffffffffffffffffffffffff16021790555050565b600080fd5b6000819050919050565b6104b08161049d565b81146104bb57600080fd5b50565b6000813590506104cd816104a7565b92915050565b6000602082840312156104e9576104e8610498565b5b60006104f7848285016104be565b91505092915050565b600081519050919050565b600082825260208201905092915050565b6000819050602082019050919050565b600073ffffffffffffffffffffffffffffffffffffffff82169050919050565b60006105578261052c565b9050919050565b6105678161054c565b82525050565b6000610579838361055e565b60208301905092915050565b6000602082019050919050565b600061059d82610500565b6105a7818561050b565b93506105b28361051c565b8060005b838110156105e35781516105ca888261056d565b97506105d583610585565b9250506001810190506105b6565b5085935050505092915050565b6000602082019050818103600083015261060a8184610592565b905092915050565b61061b8161054c565b82525050565b60006020820190506106366000830184610612565b92915050565b6106458161049d565b82525050565b6000602082019050610660600083018461063c565b92915050565b61066f8161054c565b811461067a57600080fd5b50565b60008135905061068c81610666565b92915050565b6000602082840312156106a8576106a7610498565b5b60006106b68482850161067d565b91505092915050565b7f4e487b7100000000000000000000000000000000000000000000000000000000600052604160045260246000fd5b7f4e487b7100000000000000000000000000000000000000000000000000000000600052603260045260246000fd5b7f4e487b7100000000000000000000000000000000000000000000000000000000600052601160045260246000fd5b60006107578261049d565b91507fffffffffffffffffffffffffffffffffffffffffffffffffffffffffffffffff82036107895761078861071d565b5b600182019050919050565b600082825260208201905092915050565b7f4f6e6c7920746865206f776e65722063616e20646f2074686174000000000000600082015250565b60006107db601a83610794565b91506107e6826107a5565b602082019050919050565b6000602082019050818103600083015261080a816107ce565b905091905056fea26469706673582212202eec9a97ed8761e4d8b33aebb7f151a40b30f52c05d4032b0665812c44ba610a64736f6c63430008110033",
  "immutableReferences": {},
  "source": "// SPDX-License-Identifier: MIT\r\npragma solidity >=0.4.22 <0.9.0;\r\n \r\ncontract Simplebank {\r\n\r\n  uint public numberOfFunders;\r\n  mapping(address => bool) private funders;\r\n  mapping(uint => address) private lutFunders;\r\n  address public owner;\r\n\r\n  constructor (){\r\n    owner = msg.sender;\r\n  }\r\n\r\n  modifier onlyOwner(){\r\n    require(msg.sender == owner, \"Only the owner can do that\");\r\n    _;\r\n  }\r\n\r\n  function transferOwnership(address newOwner) external onlyOwner{\r\n    owner = newOwner;\r\n  }\r\n\r\n  function addFunds() external payable{\r\n    address funder = msg.sender;\r\n    if(!funders[funder]){\r\n      uint index = numberOfFunders++;\r\n      funders[funder] = true;\r\n      lutFunders[index] = funder;\r\n    }\r\n  }\r\n\r\n  function getAllFunders() external view returns(address[] memory) {\r\n    address[] memory _funders = new address[](numberOfFunders);\r\n    for(uint i=0; i<numberOfFunders; i++){\r\n      _funders[i] = lutFunders[i];\r\n    }\r\n    return _funders;\r\n  }\r\n\r\nfunction withdraw(uint withdrawAmount) external {\r\n  //require(withdrawAmount < 1000000000000000000 || msg.sender == owner, \"You can`t withdraw more then 1 ether\");\r\n  payable (msg.sender).transfer(withdrawAmount);\r\n}\r\n  \r\n}\r\n\r\n\r\n//const instance = await Simplebank.deployed()\r\n//instance.addFunds({value:\"500000000000000000\", from: accounts[0]})\r\n//instance.addFunds({value:\"500000000000000000\", from: accounts[1]})\r\n//const funds = instance.funds()\r\n//instance.getAllFunders()\r\n//instance.getAllFunds()\r\n//instance.withdraw(1000000000000000000)\r\n//instance.transferOwnership(\"0x3C0CB6eE614b8202559E3e5c39a8d89bdA7Fb82D\")",
  "sourcePath": "C:\\Users\\Yael\\Desktop\\fourth year\\InternetTech\\solidity01\\contracts\\Simplebank.sol",
  "compiler": {
    "name": "solc",
    "version": "0.8.17+commit.8df45f5f.Emscripten.clang"
  },
  "schemaVersion": "3.4.11",
  "updatedAt": "2023-01-07T23:10:51.280Z",
  "networkType": "ethereum",
  "devdoc": {
    "kind": "dev",
    "methods": {},
    "version": 1
  },
  "userdoc": {
    "kind": "user",
    "methods": {},
    "version": 1
  }
}